{
  "_format": "hh-sol-artifact-1",
  "contractName": "HealthRecord",
  "sourceName": "contracts/HealthRecord.sol",
  "abi": [
    {
      "inputs": [
        {
          "internalType": "address",
          "name": "_provider",
          "type": "address"
        }
      ],
      "name": "authorizeAccess",
      "outputs": [],
      "stateMutability": "nonpayable",
      "type": "function"
    },
    {
      "inputs": [
        {
          "internalType": "string",
          "name": "_dataHash",
          "type": "string"
        }
      ],
      "name": "createRecord",
      "outputs": [],
      "stateMutability": "nonpayable",
      "type": "function"
    },
    {
      "inputs": [],
      "name": "getRecord",
      "outputs": [
        {
          "internalType": "string",
          "name": "",
          "type": "string"
        }
      ],
      "stateMutability": "view",
      "type": "function"
    },
    {
      "inputs": [
        {
          "internalType": "address",
          "name": "_provider",
          "type": "address"
        }
      ],
      "name": "revokeAccess",
      "outputs": [],
      "stateMutability": "nonpayable",
      "type": "function"
    }
  ],
  "bytecode": "0x608060405234801561001057600080fd5b50610d15806100206000396000f3fe608060405234801561001057600080fd5b506004361061004c5760003560e01c806385e6853114610051578063db70504b1461006d578063eed1421814610089578063f18ad6fb146100a5575b600080fd5b61006b600480360381019061006691906108a5565b6100c3565b005b610087600480360381019061008291906108ce565b61022a565b005b6100a3600480360381019061009e91906108a5565b61038d565b005b6100ad6104f3565b6040516100ba9190610a94565b60405180910390f35b6000803373ffffffffffffffffffffffffffffffffffffffff1673ffffffffffffffffffffffffffffffffffffffff16815260200190815260200160002060010160009054906101000a900473ffffffffffffffffffffffffffffffffffffffff1673ffffffffffffffffffffffffffffffffffffffff163373ffffffffffffffffffffffffffffffffffffffff1614610192576040517f08c379a000000000000000000000000000000000000000000000000000000000815260040161018990610b16565b60405180910390fd5b6000600160003373ffffffffffffffffffffffffffffffffffffffff1673ffffffffffffffffffffffffffffffffffffffff16815260200190815260200160002060008373ffffffffffffffffffffffffffffffffffffffff1673ffffffffffffffffffffffffffffffffffffffff16815260200190815260200160002060006101000a81548160ff02191690831515021790555050565b60008060003373ffffffffffffffffffffffffffffffffffffffff1673ffffffffffffffffffffffffffffffffffffffff168152602001908152602001600020600001805461027890610c27565b9050146102ba576040517f08c379a00000000000000000000000000000000000000000000000000000000081526004016102b190610ad6565b60405180910390fd5b60405180604001604052808281526020013373ffffffffffffffffffffffffffffffffffffffff168152506000803373ffffffffffffffffffffffffffffffffffffffff1673ffffffffffffffffffffffffffffffffffffffff168152602001908152602001600020600082015181600001908051906020019061033f929190610785565b5060208201518160010160006101000a81548173ffffffffffffffffffffffffffffffffffffffff021916908373ffffffffffffffffffffffffffffffffffffffff16021790555090505050565b6000803373ffffffffffffffffffffffffffffffffffffffff1673ffffffffffffffffffffffffffffffffffffffff16815260200190815260200160002060010160009054906101000a900473ffffffffffffffffffffffffffffffffffffffff1673ffffffffffffffffffffffffffffffffffffffff163373ffffffffffffffffffffffffffffffffffffffff161461045c576040517f08c379a000000000000000000000000000000000000000000000000000000000815260040161045390610ab6565b60405180910390fd5b60018060003373ffffffffffffffffffffffffffffffffffffffff1673ffffffffffffffffffffffffffffffffffffffff16815260200190815260200160002060008373ffffffffffffffffffffffffffffffffffffffff1673ffffffffffffffffffffffffffffffffffffffff16815260200190815260200160002060006101000a81548160ff02191690831515021790555050565b60603373ffffffffffffffffffffffffffffffffffffffff166000803373ffffffffffffffffffffffffffffffffffffffff1673ffffffffffffffffffffffffffffffffffffffff16815260200190815260200160002060010160009054906101000a900473ffffffffffffffffffffffffffffffffffffffff1673ffffffffffffffffffffffffffffffffffffffff1614806106775750600160008060003373ffffffffffffffffffffffffffffffffffffffff1673ffffffffffffffffffffffffffffffffffffffff16815260200190815260200160002060010160009054906101000a900473ffffffffffffffffffffffffffffffffffffffff1673ffffffffffffffffffffffffffffffffffffffff1673ffffffffffffffffffffffffffffffffffffffff16815260200190815260200160002060003373ffffffffffffffffffffffffffffffffffffffff1673ffffffffffffffffffffffffffffffffffffffff16815260200190815260200160002060009054906101000a900460ff165b6106b6576040517f08c379a00000000000000000000000000000000000000000000000000000000081526004016106ad90610af6565b60405180910390fd5b6000803373ffffffffffffffffffffffffffffffffffffffff1673ffffffffffffffffffffffffffffffffffffffff168152602001908152602001600020600001805461070290610c27565b80601f016020809104026020016040519081016040528092919081815260200182805461072e90610c27565b801561077b5780601f106107505761010080835404028352916020019161077b565b820191906000526020600020905b81548152906001019060200180831161075e57829003601f168201915b5050505050905090565b82805461079190610c27565b90600052602060002090601f0160209004810192826107b357600085556107fa565b82601f106107cc57805160ff19168380011785556107fa565b828001600101855582156107fa579182015b828111156107f95782518255916020019190600101906107de565b5b509050610807919061080b565b5090565b5b8082111561082457600081600090555060010161080c565b5090565b600061083b61083684610b67565b610b36565b90508281526020810184848401111561085357600080fd5b61085e848285610be5565b509392505050565b60008135905061087581610cc8565b92915050565b600082601f83011261088c57600080fd5b813561089c848260208601610828565b91505092915050565b6000602082840312156108b757600080fd5b60006108c584828501610866565b91505092915050565b6000602082840312156108e057600080fd5b600082013567ffffffffffffffff8111156108fa57600080fd5b6109068482850161087b565b91505092915050565b600061091a82610b97565b6109248185610ba2565b9350610934818560208601610bf4565b61093d81610cb7565b840191505092915050565b6000610955602683610ba2565b91507f4f6e6c79207468652070617469656e742063616e20617574686f72697a65206160008301527f63636573732e00000000000000000000000000000000000000000000000000006020830152604082019050919050565b60006109bb601683610ba2565b91507f5265636f726420616c7265616479206578697374732e000000000000000000006000830152602082019050919050565b60006109fb601483610ba2565b91507f556e617574686f72697a6564206163636573732e0000000000000000000000006000830152602082019050919050565b6000610a3b602383610ba2565b91507f4f6e6c79207468652070617469656e742063616e207265766f6b65206163636560008301527f73732e00000000000000000000000000000000000000000000000000000000006020830152604082019050919050565b60006020820190508181036000830152610aae818461090f565b905092915050565b60006020820190508181036000830152610acf81610948565b9050919050565b60006020820190508181036000830152610aef816109ae565b9050919050565b60006020820190508181036000830152610b0f816109ee565b9050919050565b60006020820190508181036000830152610b2f81610a2e565b9050919050565b6000604051905081810181811067ffffffffffffffff82111715610b5d57610b5c610c88565b5b8060405250919050565b600067ffffffffffffffff821115610b8257610b81610c88565b5b601f19601f8301169050602081019050919050565b600081519050919050565b600082825260208201905092915050565b6000610bbe82610bc5565b9050919050565b600073ffffffffffffffffffffffffffffffffffffffff82169050919050565b82818337600083830152505050565b60005b83811015610c12578082015181840152602081019050610bf7565b83811115610c21576000848401525b50505050565b60006002820490506001821680610c3f57607f821691505b60208210811415610c5357610c52610c59565b5b50919050565b7f4e487b7100000000000000000000000000000000000000000000000000000000600052602260045260246000fd5b7f4e487b7100000000000000000000000000000000000000000000000000000000600052604160045260246000fd5b6000601f19601f8301169050919050565b610cd181610bb3565b8114610cdc57600080fd5b5056fea2646970667358221220208a4ba952fd0b9211cef3b4d43d42caa5ed215433772acc98cec6e21a96327964736f6c63430008000033",
  "linkReferences": {},
  "deployedLinkReferences": {}
}